{
  "_format": "hh-sol-artifact-1",
  "contractName": "ICO",
  "sourceName": "contracts/ICO.sol",
  "abi": [
    {
      "inputs": [
        {
          "internalType": "uint256",
          "name": "_rate",
          "type": "uint256"
        }
      ],
      "stateMutability": "nonpayable",
      "type": "constructor"
    },
    {
      "inputs": [],
      "name": "ReentrancyGuardReentrantCall",
      "type": "error"
    },
    {
      "anonymous": false,
      "inputs": [
        {
          "indexed": true,
          "internalType": "address",
          "name": "beneficiary",
          "type": "address"
        },
        {
          "indexed": false,
          "internalType": "address",
          "name": "stablecoinAddress",
          "type": "address"
        },
        {
          "indexed": false,
          "internalType": "uint256",
          "name": "stablecoinAmount",
          "type": "uint256"
        },
        {
          "indexed": false,
          "internalType": "uint256",
          "name": "_gldkrmAmount",
          "type": "uint256"
        }
      ],
      "name": "Bought",
      "type": "event"
    },
    {
      "anonymous": false,
      "inputs": [
        {
          "indexed": true,
          "internalType": "address",
          "name": "beneficiary",
          "type": "address"
        },
        {
          "indexed": false,
          "internalType": "address",
          "name": "stablecoinAddress",
          "type": "address"
        },
        {
          "indexed": false,
          "internalType": "uint256",
          "name": "stablecoinAmount",
          "type": "uint256"
        }
      ],
      "name": "Withdrawal",
      "type": "event"
    },
    {
      "inputs": [
        {
          "internalType": "address",
          "name": "_admin",
          "type": "address"
        }
      ],
      "name": "addAdmin",
      "outputs": [],
      "stateMutability": "nonpayable",
      "type": "function"
    },
    {
      "inputs": [
        {
          "internalType": "address",
          "name": "",
          "type": "address"
        }
      ],
      "name": "admins",
      "outputs": [
        {
          "internalType": "bool",
          "name": "",
          "type": "bool"
        }
      ],
      "stateMutability": "view",
      "type": "function"
    },
    {
      "inputs": [
        {
          "internalType": "address",
          "name": "_stablecoinAddress",
          "type": "address"
        }
      ],
      "name": "authorizeStablecoin",
      "outputs": [],
      "stateMutability": "nonpayable",
      "type": "function"
    },
    {
      "inputs": [
        {
          "internalType": "address",
          "name": "",
          "type": "address"
        }
      ],
      "name": "authorizedStablecoins",
      "outputs": [
        {
          "internalType": "bool",
          "name": "",
          "type": "bool"
        }
      ],
      "stateMutability": "view",
      "type": "function"
    },
    {
      "inputs": [
        {
          "internalType": "uint256",
          "name": "_amount",
          "type": "uint256"
        },
        {
          "internalType": "address",
          "name": "_stablecoinAddress",
          "type": "address"
        }
      ],
      "name": "buy",
      "outputs": [],
      "stateMutability": "nonpayable",
      "type": "function"
    },
    {
      "inputs": [],
      "name": "gldkrm20",
      "outputs": [
        {
          "internalType": "contract IERC20",
          "name": "",
          "type": "address"
        }
      ],
      "stateMutability": "view",
      "type": "function"
    },
    {
      "inputs": [],
      "name": "isActive",
      "outputs": [
        {
          "internalType": "bool",
          "name": "",
          "type": "bool"
        }
      ],
      "stateMutability": "view",
      "type": "function"
    },
    {
      "inputs": [],
      "name": "rate",
      "outputs": [
        {
          "internalType": "uint256",
          "name": "",
          "type": "uint256"
        }
      ],
      "stateMutability": "view",
      "type": "function"
    },
    {
      "inputs": [
        {
          "internalType": "address",
          "name": "_stablecoinAddress",
          "type": "address"
        }
      ],
      "name": "removeStablecoin",
      "outputs": [],
      "stateMutability": "nonpayable",
      "type": "function"
    },
    {
      "inputs": [
        {
          "internalType": "address",
          "name": "_gldkrmAddress",
          "type": "address"
        }
      ],
      "name": "setGldkrmAddress",
      "outputs": [],
      "stateMutability": "nonpayable",
      "type": "function"
    },
    {
      "inputs": [
        {
          "internalType": "bool",
          "name": "_activate",
          "type": "bool"
        }
      ],
      "name": "setIsActivated",
      "outputs": [],
      "stateMutability": "nonpayable",
      "type": "function"
    },
    {
      "inputs": [
        {
          "internalType": "address",
          "name": "",
          "type": "address"
        }
      ],
      "name": "stablecoinBalances",
      "outputs": [
        {
          "internalType": "uint256",
          "name": "",
          "type": "uint256"
        }
      ],
      "stateMutability": "view",
      "type": "function"
    },
    {
      "inputs": [
        {
          "internalType": "uint256",
          "name": "_amount",
          "type": "uint256"
        },
        {
          "internalType": "address",
          "name": "_stablecoinAddress",
          "type": "address"
        }
      ],
      "name": "withdrawal",
      "outputs": [],
      "stateMutability": "nonpayable",
      "type": "function"
    }
  ],
  "bytecode": "0x60806040526000600660016101000a81548160ff0219169083151502179055503480156200002c57600080fd5b5060405162001efe38038062001efe833981810160405281019062000052919062000160565b600160008190555060008111620000a0576040517f08c379a00000000000000000000000000000000000000000000000000000000081526004016200009790620001f3565b60405180910390fd5b8060058190555060018060003373ffffffffffffffffffffffffffffffffffffffff1673ffffffffffffffffffffffffffffffffffffffff16815260200190815260200160002060006101000a81548160ff0219169083151502179055506001600660006101000a81548160ff0219169083151502179055505062000215565b600080fd5b6000819050919050565b6200013a8162000125565b81146200014657600080fd5b50565b6000815190506200015a816200012f565b92915050565b60006020828403121562000179576200017862000120565b5b6000620001898482850162000149565b91505092915050565b600082825260208201905092915050565b7f52617465206d7573742062652067726561746572207468616e20300000000000600082015250565b6000620001db601b8362000192565b9150620001e882620001a3565b602082019050919050565b600060208201905081810360008301526200020e81620001cc565b9050919050565b611cd980620002256000396000f3fe608060405234801561001057600080fd5b50600436106100ce5760003560e01c8063429b62e51161008c5780637deb6025116100665780637deb6025146101e75780639845ec4d14610203578063a997d8a714610233578063f994ddfb14610263576100ce565b8063429b62e51461017f5780634798d406146101af57806370480275146101cb576100ce565b8062eb52f2146100d3578063092a6d41146100ef578063190d7c551461010b57806322f3e2d4146101275780632c4e722e146101455780633b947d2b14610163575b600080fd5b6100ed60048036038101906100e891906113f4565b610281565b005b6101096004803603810190610104919061147f565b610331565b005b610125600480360381019061012091906114e2565b6104e8565b005b61012f6107e3565b60405161013c9190611531565b60405180910390f35b61014d6107f6565b60405161015a919061155b565b60405180910390f35b61017d6004803603810190610178919061147f565b6107fc565b005b6101996004803603810190610194919061147f565b6109db565b6040516101a69190611531565b60405180910390f35b6101c960048036038101906101c4919061147f565b6109fb565b005b6101e560048036038101906101e0919061147f565b610b9d565b005b61020160048036038101906101fc91906114e2565b610d86565b005b61021d6004803603810190610218919061147f565b611309565b60405161022a9190611531565b60405180910390f35b61024d6004803603810190610248919061147f565b611329565b60405161025a919061155b565b60405180910390f35b61026b611341565b60405161027891906115d5565b60405180910390f35b60011515600160003373ffffffffffffffffffffffffffffffffffffffff1673ffffffffffffffffffffffffffffffffffffffff16815260200190815260200160002060009054906101000a900460ff16151514610314576040517f08c379a000000000000000000000000000000000000000000000000000000000815260040161030b9061164d565b60405180910390fd5b80600660006101000a81548160ff02191690831515021790555050565b60011515600160003373ffffffffffffffffffffffffffffffffffffffff1673ffffffffffffffffffffffffffffffffffffffff16815260200190815260200160002060009054906101000a900460ff161515146103c4576040517f08c379a00000000000000000000000000000000000000000000000000000000081526004016103bb9061164d565b60405180910390fd5b600073ffffffffffffffffffffffffffffffffffffffff168173ffffffffffffffffffffffffffffffffffffffff1603610433576040517f08c379a000000000000000000000000000000000000000000000000000000000815260040161042a906116b9565b60405180910390fd5b60001515600660019054906101000a900460ff16151514610489576040517f08c379a00000000000000000000000000000000000000000000000000000000081526004016104809061174b565b60405180910390fd5b80600460006101000a81548173ffffffffffffffffffffffffffffffffffffffff021916908373ffffffffffffffffffffffffffffffffffffffff1602179055506001600660016101000a81548160ff02191690831515021790555050565b60011515600160003373ffffffffffffffffffffffffffffffffffffffff1673ffffffffffffffffffffffffffffffffffffffff16815260200190815260200160002060009054906101000a900460ff1615151461057b576040517f08c379a00000000000000000000000000000000000000000000000000000000081526004016105729061164d565b60405180910390fd5b610583611367565b600073ffffffffffffffffffffffffffffffffffffffff168173ffffffffffffffffffffffffffffffffffffffff16036105f2576040517f08c379a00000000000000000000000000000000000000000000000000000000081526004016105e9906116b9565b60405180910390fd5b81600360008373ffffffffffffffffffffffffffffffffffffffff1673ffffffffffffffffffffffffffffffffffffffff168152602001908152602001600020541015610674576040517f08c379a000000000000000000000000000000000000000000000000000000000815260040161066b906117b7565b60405180910390fd5b600081905082600360008473ffffffffffffffffffffffffffffffffffffffff1673ffffffffffffffffffffffffffffffffffffffff168152602001908152602001600020546106c49190611806565b600360008473ffffffffffffffffffffffffffffffffffffffff1673ffffffffffffffffffffffffffffffffffffffff168152602001908152602001600020819055508073ffffffffffffffffffffffffffffffffffffffff1663a9059cbb33856040518363ffffffff1660e01b8152600401610742929190611849565b6020604051808303816000875af1158015610761573d6000803e3d6000fd5b505050506040513d601f19601f820116820180604052508101906107859190611887565b503373ffffffffffffffffffffffffffffffffffffffff167f2717ead6b9200dd235aad468c9809ea400fe33ac69b5bfaa6d3e90fc922b639883856040516107ce929190611849565b60405180910390a2506107df6113ad565b5050565b600660009054906101000a900460ff1681565b60055481565b60011515600160003373ffffffffffffffffffffffffffffffffffffffff1673ffffffffffffffffffffffffffffffffffffffff16815260200190815260200160002060009054906101000a900460ff1615151461088f576040517f08c379a00000000000000000000000000000000000000000000000000000000081526004016108869061164d565b60405180910390fd5b600073ffffffffffffffffffffffffffffffffffffffff168173ffffffffffffffffffffffffffffffffffffffff16036108fe576040517f08c379a00000000000000000000000000000000000000000000000000000000081526004016108f5906116b9565b60405180910390fd5b6000600360008373ffffffffffffffffffffffffffffffffffffffff1673ffffffffffffffffffffffffffffffffffffffff1681526020019081526020016000205414610980576040517f08c379a000000000000000000000000000000000000000000000000000000000815260040161097790611926565b60405180910390fd5b6000600260008373ffffffffffffffffffffffffffffffffffffffff1673ffffffffffffffffffffffffffffffffffffffff16815260200190815260200160002060006101000a81548160ff02191690831515021790555050565b60016020528060005260406000206000915054906101000a900460ff1681565b60011515600160003373ffffffffffffffffffffffffffffffffffffffff1673ffffffffffffffffffffffffffffffffffffffff16815260200190815260200160002060009054906101000a900460ff16151514610a8e576040517f08c379a0000000000000000000000000000000000000000000000000000000008152600401610a859061164d565b60405180910390fd5b600073ffffffffffffffffffffffffffffffffffffffff168173ffffffffffffffffffffffffffffffffffffffff1603610afd576040517f08c379a0000000000000000000000000000000000000000000000000000000008152600401610af4906116b9565b60405180910390fd5b6001600260008373ffffffffffffffffffffffffffffffffffffffff1673ffffffffffffffffffffffffffffffffffffffff16815260200190815260200160002060006101000a81548160ff0219169083151502179055506000600360008373ffffffffffffffffffffffffffffffffffffffff1673ffffffffffffffffffffffffffffffffffffffff1681526020019081526020016000208190555050565b60011515600160003373ffffffffffffffffffffffffffffffffffffffff1673ffffffffffffffffffffffffffffffffffffffff16815260200190815260200160002060009054906101000a900460ff16151514610c30576040517f08c379a0000000000000000000000000000000000000000000000000000000008152600401610c279061164d565b60405180910390fd5b600073ffffffffffffffffffffffffffffffffffffffff168173ffffffffffffffffffffffffffffffffffffffff1603610c9f576040517f08c379a0000000000000000000000000000000000000000000000000000000008152600401610c96906116b9565b60405180910390fd5b600160008273ffffffffffffffffffffffffffffffffffffffff1673ffffffffffffffffffffffffffffffffffffffff16815260200190815260200160002060009054906101000a900460ff1615610d2c576040517f08c379a0000000000000000000000000000000000000000000000000000000008152600401610d2390611992565b60405180910390fd5b60018060008373ffffffffffffffffffffffffffffffffffffffff1673ffffffffffffffffffffffffffffffffffffffff16815260200190815260200160002060006101000a81548160ff02191690831515021790555050565b610d8e611367565b60011515600660009054906101000a900460ff16151514610de4576040517f08c379a0000000000000000000000000000000000000000000000000000000008152600401610ddb906119fe565b60405180910390fd5b60011515600660019054906101000a900460ff16151514610e3a576040517f08c379a0000000000000000000000000000000000000000000000000000000008152600401610e3190611a6a565b60405180910390fd5b60011515600260008373ffffffffffffffffffffffffffffffffffffffff1673ffffffffffffffffffffffffffffffffffffffff16815260200190815260200160002060009054906101000a900460ff16151514610ecd576040517f08c379a0000000000000000000000000000000000000000000000000000000008152600401610ec490611ad6565b60405180910390fd5b600073ffffffffffffffffffffffffffffffffffffffff168173ffffffffffffffffffffffffffffffffffffffff1603610f3c576040517f08c379a0000000000000000000000000000000000000000000000000000000008152600401610f33906116b9565b60405180910390fd5b600081905060008173ffffffffffffffffffffffffffffffffffffffff166370a08231336040518263ffffffff1660e01b8152600401610f7c9190611af6565b602060405180830381865afa158015610f99573d6000803e3d6000fd5b505050506040513d601f19601f82011682018060405250810190610fbd9190611b26565b905083811015611002576040517f08c379a0000000000000000000000000000000000000000000000000000000008152600401610ff9906117b7565b60405180910390fd5b6000600554856110129190611b53565b90506000600460009054906101000a900473ffffffffffffffffffffffffffffffffffffffff1673ffffffffffffffffffffffffffffffffffffffff166370a08231306040518263ffffffff1660e01b81526004016110719190611af6565b602060405180830381865afa15801561108e573d6000803e3d6000fd5b505050506040513d601f19601f820116820180604052508101906110b29190611b26565b9050818110156110f7576040517f08c379a00000000000000000000000000000000000000000000000000000000081526004016110ee90611be1565b60405180910390fd5b8373ffffffffffffffffffffffffffffffffffffffff166323b872dd3330896040518463ffffffff1660e01b815260040161113493929190611c01565b6020604051808303816000875af1158015611153573d6000803e3d6000fd5b505050506040513d601f19601f820116820180604052508101906111779190611887565b5085600360008773ffffffffffffffffffffffffffffffffffffffff1673ffffffffffffffffffffffffffffffffffffffff168152602001908152602001600020546111c39190611c38565b600360008773ffffffffffffffffffffffffffffffffffffffff1673ffffffffffffffffffffffffffffffffffffffff16815260200190815260200160002081905550600460009054906101000a900473ffffffffffffffffffffffffffffffffffffffff1673ffffffffffffffffffffffffffffffffffffffff1663a9059cbb33846040518363ffffffff1660e01b8152600401611263929190611849565b6020604051808303816000875af1158015611282573d6000803e3d6000fd5b505050506040513d601f19601f820116820180604052508101906112a69190611887565b503373ffffffffffffffffffffffffffffffffffffffff167fbf77fd13a39d14dc0da779342c14105c38d9a5d0c60f2caa22f5fd1d5525416d8688856040516112f193929190611c6c565b60405180910390a2505050506113056113ad565b5050565b60026020528060005260406000206000915054906101000a900460ff1681565b60036020528060005260406000206000915090505481565b600460009054906101000a900473ffffffffffffffffffffffffffffffffffffffff1681565b6002600054036113a3576040517f3ee5aeb500000000000000000000000000000000000000000000000000000000815260040160405180910390fd5b6002600081905550565b6001600081905550565b600080fd5b60008115159050919050565b6113d1816113bc565b81146113dc57600080fd5b50565b6000813590506113ee816113c8565b92915050565b60006020828403121561140a576114096113b7565b5b6000611418848285016113df565b91505092915050565b600073ffffffffffffffffffffffffffffffffffffffff82169050919050565b600061144c82611421565b9050919050565b61145c81611441565b811461146757600080fd5b50565b60008135905061147981611453565b92915050565b600060208284031215611495576114946113b7565b5b60006114a38482850161146a565b91505092915050565b6000819050919050565b6114bf816114ac565b81146114ca57600080fd5b50565b6000813590506114dc816114b6565b92915050565b600080604083850312156114f9576114f86113b7565b5b6000611507858286016114cd565b92505060206115188582860161146a565b9150509250929050565b61152b816113bc565b82525050565b60006020820190506115466000830184611522565b92915050565b611555816114ac565b82525050565b6000602082019050611570600083018461154c565b92915050565b6000819050919050565b600061159b61159661159184611421565b611576565b611421565b9050919050565b60006115ad82611580565b9050919050565b60006115bf826115a2565b9050919050565b6115cf816115b4565b82525050565b60006020820190506115ea60008301846115c6565b92915050565b600082825260208201905092915050565b7f4e6f7420616e2061646d696e0000000000000000000000000000000000000000600082015250565b6000611637600c836115f0565b915061164282611601565b602082019050919050565b600060208201905081810360008301526116668161162a565b9050919050565b7f496e76616c696420616464726573730000000000000000000000000000000000600082015250565b60006116a3600f836115f0565b91506116ae8261166d565b602082019050919050565b600060208201905081810360008301526116d281611696565b9050919050565b7f676c646b726d32302063616e2062652075706461746564206f6e6c79206f6e6360008201527f6500000000000000000000000000000000000000000000000000000000000000602082015250565b60006117356021836115f0565b9150611740826116d9565b604082019050919050565b6000602082019050818103600083015261176481611728565b9050919050565b7f496e73756666696369656e7420616d6f756e7400000000000000000000000000600082015250565b60006117a16013836115f0565b91506117ac8261176b565b602082019050919050565b600060208201905081810360008301526117d081611794565b9050919050565b7f4e487b7100000000000000000000000000000000000000000000000000000000600052601160045260246000fd5b6000611811826114ac565b915061181c836114ac565b9250828203905081811115611834576118336117d7565b5b92915050565b61184381611441565b82525050565b600060408201905061185e600083018561183a565b61186b602083018461154c565b9392505050565b600081519050611881816113c8565b92915050565b60006020828403121561189d5761189c6113b7565b5b60006118ab84828501611872565b91505092915050565b7f537461626c65636f696e2062616c616e63652073686f756c64206265207a657260008201527f6f00000000000000000000000000000000000000000000000000000000000000602082015250565b60006119106021836115f0565b915061191b826118b4565b604082019050919050565b6000602082019050818103600083015261193f81611903565b9050919050565b7f416c726561647920616e2061646d696e00000000000000000000000000000000600082015250565b600061197c6010836115f0565b915061198782611946565b602082019050919050565b600060208201905081810360008301526119ab8161196f565b9050919050565b7f4d6574686f64206973206e6f7420616374697665000000000000000000000000600082015250565b60006119e86014836115f0565b91506119f3826119b2565b602082019050919050565b60006020820190508181036000830152611a17816119db565b9050919050565b7f676c646b726d32302061646472657373206d7573742062652073657474656400600082015250565b6000611a54601f836115f0565b9150611a5f82611a1e565b602082019050919050565b60006020820190508181036000830152611a8381611a47565b9050919050565b7f537461626c65636f696e206e6f74207265676973746572656400000000000000600082015250565b6000611ac06019836115f0565b9150611acb82611a8a565b602082019050919050565b60006020820190508181036000830152611aef81611ab3565b9050919050565b6000602082019050611b0b600083018461183a565b92915050565b600081519050611b20816114b6565b92915050565b600060208284031215611b3c57611b3b6113b7565b5b6000611b4a84828501611b11565b91505092915050565b6000611b5e826114ac565b9150611b69836114ac565b9250828202611b77816114ac565b91508282048414831517611b8e57611b8d6117d7565b5b5092915050565b7f4e6f7420656e6f75676820474c444b524d20617661696c61626c650000000000600082015250565b6000611bcb601b836115f0565b9150611bd682611b95565b602082019050919050565b60006020820190508181036000830152611bfa81611bbe565b9050919050565b6000606082019050611c16600083018661183a565b611c23602083018561183a565b611c30604083018461154c565b949350505050565b6000611c43826114ac565b9150611c4e836114ac565b9250828201905080821115611c6657611c656117d7565b5b92915050565b6000606082019050611c81600083018661183a565b611c8e602083018561154c565b611c9b604083018461154c565b94935050505056fea26469706673582212206d253a4a54ecfc8face9bfeadd4caa6c6ea769ff935257d393ecc2138c28efd064736f6c63430008140033",
  "linkReferences": {},
  "deployedLinkReferences": {}
}